:020000040800F2
:100000000000032049030008950300089503000839
:100010009503000895030008950300080000000000
:100020000000000000000000000000009503000830
:10003000950300080000000095030008ED0100088A
:100040009503000895030008950300089503000830
:100050009503000895030008950300089503000820
:100060009503000895030008950300089503000810
:100070009503000895030008950300089503000800
:1000800095030008950300089503000895030008F0
:1000900095030008950300089503000895030008E0
:1000A00095030008950300089503000895030008D0
:1000B00095030008950300089503000895030008C0
:1000C00095030008950300089503000895030008B0
:1000D00095030008950300089503000895030008A0
:1000E000090200089503000895030008950300081D
:1000F0009503000895030008950300089503000880
:10010000950300089503000895030008950300086F
:10011000950300089503000895030008950300085F
:10012000950300089503000895030008950300084F
:10013000950300089503000895030008950300083F
:10014000950300089503000895030008950300082F
:10015000950300089503000895030008950300081F
:10016000950300089503000895030008950300080F
:10017000950300089503000895030008000000009F
:1001800095030008950300089503000895030008EF
:1001900095030008950300089503000895030008DF
:0C01A00095030008950300089503000873
:1001AC0010B5054C237833B9044B13B10448AFF3A5
:1001BC0000800123237010BD00000020000000000F
:1001CC00E003000808B5034B1BB103490348AFF328
:1001DC00008008BD0000000004000020E0030008BF
:1001EC00044A138801331380034A138801331380A4
:1001FC00704700BF200000201C000020084A5369F3
:10020C0043F400535361074B1B88632B06D9064AF2
:10021C00137801331370034B00221A80704700BF10
:10022C00003C0140200000201E0000203F4A1368C3
:10023C0023F0F80343F080031360002393603B4BDF
:10024C009B6813F00C0FFAD1384A136823F08073B3
:10025C001360364B1B6813F0007FFAD1334A1368D6
:10026C0023F410231360314B1B6813F4003FFAD1B5
:10027C002E4B1A6822F480221A601A6842F48032DB
:10028C001A602A4B1B6813F4003FFAD0274B1A68EC
:10029C0022F480221A601A6842F400221A600022AA
:1002AC005A605A6842F480025A605A6822F03F023F
:1002BC0042F004025A605A686FF38E1242F43452C0
:1002CC005A605A6822F440325A601A6842F08072BE
:1002DC001A60164B1B6813F0007FFAD1134B9A6807
:1002EC0022F0030242F002029A609A6822F0F002B5
:1002FC009A609A6822F4E05242F4A0529A609A688A
:10030C0022F4604242F400429A609A6842F06052D1
:10031C009A609A6822F040429A60054A136823F06A
:10032C000F0343F005031360704700BF0038024011
:10033C00003C024008B5FFF779FFFEE7DFF830D04C
:10034C000C480D490D4A002302E0D458C450043324
:10035C00C4188C42F9D30A4A0A4C002301E01360FA
:10036C000432A242FBD300F011F8FFF7E3FF704711
:10037C000000032000000020000000200004000802
:10038C000000002024000020FEE7000070B50D4D99
:10039C000D4C641BA4100026A64209D10B4D0C4C2D
:1003AC0000F018F8641BA4100026A64205D170BDFD
:1003BC0055F8043B98470136EEE755F8043B98474F
:1003CC000136F2E7F8030008F8030008F803000808
:1003DC00FC030008F8B500BFF8BC08BC9E4670478B
:0C03EC00F8B500BFF8BC08BC9E46704786
:0403F800D101000827
:0403FC00AD01000847
:0400000508000349A3
:00000001FF
