:020000040800F2
:10000000000003202D04000879040008790400088A
:100010007904000879040008790400080000000051
:10002000000000000000000000000000790400084B
:100030007904000800000000790400087904000831
:10004000790400087904000879040008790400089C
:10005000790400087904000879040008790400088C
:10006000790400087904000879040008790400087C
:10007000790400087904000879040008790400086C
:10008000790400087904000879040008790400085C
:10009000790400087904000879040008790400084C
:1000A000790400087904000879040008790400083C
:1000B000790400087904000879040008790400082C
:1000C000790400087904000879040008790400081C
:1000D000790400087904000879040008790400080C
:1000E00079040008790400087904000879040008FC
:1000F00079040008790400087904000879040008EC
:1001000079040008790400087904000879040008DB
:1001100079040008790400087904000879040008CB
:1001200079040008790400087904000879040008BB
:1001300079040008790400087904000879040008AB
:10014000790400087904000879040008790400089B
:10015000790400087904000879040008790400088B
:10016000790400087904000879040008790400087B
:1001700079040008790400087904000800000000F0
:10018000790400087904000879040008790400085B
:10019000790400087904000879040008790400084B
:0C01A000790400087904000879040008C4
:1001AC0010B5054C237833B9044B13B10448AFF3A5
:1001BC0000800123237010BD04000020000000000B
:1001CC00C404000808B5034B1BB103490348AFF343
:1001DC00008008BD0000000008000020C4040008D6
:1001EC000F4AD2F8303843F00201C2F8301843F00D
:1001FC000603C2F830380B4BD3F8002442F480428B
:10020C00C3F80024D3F8082442F48042C3F808242D
:10021C00D3F8182442F40002C3F81824704700BF26
:10022C0000300240000002400D4AD2F8303843F052
:10023C000603C2F830380B4BD3F8002442F080523E
:10024C00C3F80024D3F8082442F08052C3F80824E1
:10025C00D3F8182442F08042C3F81824704700BF2A
:10026C0000300240000002400B4A136B43F00603BF
:10027C0013630A4B1A6842F001021A605A6822F0A2
:10028C0001025A609A6842F001029A609A6942F43B
:10029C0080329A61704700BF00380240000402406F
:1002AC00044B1A6822F480321A60DA6822F4803225
:1002BC00DA60704700080240194A936943F08143A1
:1002CC0043F480339361002206E015498B6943F0B7
:1002DC0080038B610132D2B2124B1B7893421DD337
:1002EC00114B19781144114B83FB0103A3EBE17300
:1002FC0003EB4303CB1ADBB2012BE6D0022B07D066
:10030C00002BE7D106498B6943F001038B61E1E7D0
:10031C0003498B6943F480438B61DBE7704700BF73
:10032C0000040240200000200000002056555555C6
:10033C0000B585B0FFF754FFFFF776FFFFF794FF8A
:10034C00FFF7AEFF32E02D4B01221A702C490A78D0
:10035C0001322C4B83FB020303EB4303D31A0B70C8
:10036C00294B1B78022B04D0FFF7A6FF0023029326
:10037C0014E0264A936943F0814343F4803393613C
:10038C000023019302E0019B01330193019A204B5E
:10039C009A42F8D9E8E7029B01330293029A1D4B6B
:1003AC009A42F8D90BE01C4B00221A701B4BD3F865
:1003BC00103813F4807FC6D1104B00221A70174BE3
:1003CC00D3F8103813F4005FEDD0134B01221A70E0
:1003DC000D490A7801320B4B83FB020303EB4303F9
:1003EC00D31A0B70FFF768FF00230393039A094B92
:1003FC009A42DBD8039B01330393F7E722000020DA
:10040C0000000020565555552000002000040240E5
:10041C009F8601003F420F00210000200000024097
:10042C00DFF830D00C480D490D4A002302E0D458B7
:10043C00C4500433C4188C42F9D30A4A0A4C002322
:10044C0001E013600432A242FBD300F011F8FFF775
:10045C006FFF704700000320000000200400002004
:10046C00E40400080400002024000020FEE7000043
:10047C0070B50D4D0D4C641BA4100026A64209D17D
:10048C000B4D0C4C00F018F8641BA4100026A6426F
:10049C0005D170BD55F8043B98470136EEE755F889
:1004AC00043B98470136F2E7DC040008DC04000842
:1004BC00DC040008E0040008F8B500BFF8BC08BC78
:1004CC009E467047F8B500BFF8BC08BC9E46704706
:0404DC00D101000842
:0404E000AD01000862
:0404E4000200000012
:040000050800042DBE
:00000001FF
