:020000040800F2
:1000000000000320B50300080104000801040008F3
:1000100001040008010400080104000800000000B9
:1000200000000000000000000000000001040008C3
:100030000104000800000000010400080104000899
:10004000010400080104000801040008010400087C
:10005000010400080104000801040008010400086C
:10006000010400080104000801040008010400085C
:10007000010400080104000801040008010400084C
:10008000010400080104000801040008010400083C
:10009000010400080104000801040008010400082C
:1000A000010400080104000801040008010400081C
:1000B000010400080104000801040008010400080C
:1000C00001040008010400080104000801040008FC
:1000D00001040008010400080104000801040008EC
:1000E00001040008010400080104000801040008DC
:1000F00001040008010400080104000801040008CC
:1001000001040008010400080104000801040008BB
:1001100001040008010400080104000801040008AB
:10012000010400080104000801040008010400089B
:10013000010400080104000801040008010400088B
:10014000010400080104000801040008010400087B
:10015000010400080104000801040008010400086B
:10016000010400080104000801040008010400085B
:100170000104000801040008010400080000000058
:10018000010400080104000801040008010400083B
:10019000010400080104000801040008010400082B
:0C01A0000104000801040008010400082C
:1001AC0010B5054C237833B9044B13B10448AFF3A5
:1001BC0000800123237010BD00000020000000000F
:1001CC004C04000808B5034B1BB103490348AFF3BB
:1001DC00008008BD00000000040000204C04000852
:1001EC00194A936943F0814343F4803393610022AD
:1001FC0006E015498B6943F080038B610132D2B262
:10020C00124B1B7893421DD9114B19781144114B89
:10021C0083FB0103A3EBE17303EB4303CB1ADBB2C8
:10022C00012BE6D0022B07D0002BE7D106498B69B6
:10023C0043F001038B61E1E703498B6943F480438D
:10024C008B61DBE7704700BF000402401C000020FC
:10025C001D000020565555550F4AD2F8303843F042
:10026C000201C2F8301843F00603C2F830380B4BC9
:10027C00D3F8002442F48042C3F80024D3F80824B5
:10028C0042F48042C3F80824D3F8182442F4000244
:10029C00C3F81824704700BF003002400000024031
:1002AC000D4AD2F8303843F00603C2F830380B4B05
:1002BC00D3F8002442F08052C3F80024D3F8082469
:1002CC0042F08052C3F80824D3F8182442F080423C
:1002DC00C3F81824704700BF0030024000000240F1
:1002EC000B4A136B43F0060313630A4B1A6842F074
:1002FC0001021A605A6822F001025A609A6842F0B0
:10030C0001029A609A6942F480329A61704700BF88
:10031C000038024000040240044B1A6822F4802288
:10032C001A60DA6822F48022DA6070470008024012
:10033C0008B5FFF791FFFFF7B3FFFFF7D1FFFFF70A
:10034C00EBFF144BD3F8103813F4005F14D1114B9E
:10035C00D3F8103813F4805FF3D00F4803780F4AAA
:10036C00A2FB031202F0FE0101EB52029B1A0133B5
:10037C000370FFF735FFE4E709490A780132094BAE
:10038C0083FB020303EB4303D31A0B70FFF728FF25
:10039C00DDE700BF000002401C000020ABAAAAAAA7
:1003AC001D00002056555555DFF830D00C480D492E
:1003BC000D4A002302E0D458C4500433C4188C42B4
:1003CC00F9D30A4A0A4C002301E013600432A2421A
:1003DC00FBD300F011F8FFF7ABFF704700000320D0
:1003EC0000000020000000206C0400080000002029
:1003FC0020000020FEE7000070B50D4D0D4C641B75
:10040C00A4100026A64209D10B4D0C4C00F018F894
:10041C00641BA4100026A64205D170BD55F8043B00
:10042C0098470136EEE755F8043B98470136F2E75A
:10043C0064040008640400086404000868040008EC
:10044C00F8B500BFF8BC08BC9E467047F8B500BFB5
:08045C00F8BC08BC9E46704785
:04046400D1010008BA
:04046800AD010008DA
:04000005080003B537
:00000001FF
