:020000040800F2
:1000000000000320C10200080D0300080D030008D2
:100010000D0300080D0300080D0300080000000098
:100020000000000000000000000000000D030008B8
:100030000D030008000000000D0300080D03000878
:100040000D0300080D0300080D0300080D03000850
:100050000D0300080D0300080D0300080D03000840
:100060000D0300080D0300080D0300080D03000830
:100070000D0300080D0300080D0300080D03000820
:100080000D0300080D0300080D0300080D03000810
:100090000D0300080D0300080D0300080D03000800
:1000A0000D0300080D0300080D0300080D030008F0
:1000B0000D0300080D0300080D0300080D030008E0
:1000C0000D0300080D0300080D0300080D030008D0
:1000D0000D0300080D0300080D0300080D030008C0
:1000E0000D0300080D0300080D0300080D030008B0
:1000F0000D0300080D0300080D0300080D030008A0
:100100000D0300080D0300080D0300080D0300088F
:100110000D0300080D0300080D0300080D0300087F
:100120000D0300080D0300080D0300080D0300086F
:100130000D0300080D0300080D0300080D0300085F
:100140000D0300080D0300080D0300080D0300084F
:100150000D0300080D0300080D0300080D0300083F
:100160000D0300080D0300080D0300080D0300082F
:100170000D0300080D0300080D0300080000000037
:100180000D0300080D0300080D0300080D0300080F
:100190000D0300080D0300080D0300080D030008FF
:0C01A0000D0300080D0300080D0300080B
:1001AC0010B5054C237833B9044B13B10448AFF3A5
:1001BC0000800123237010BD00000020000000000F
:1001CC005803000808B5034B1BB103490348AFF3B0
:1001DC00008008BD00000000040000205803000847
:1001EC000D4AD2F8303843F00603C2F830380B4BC6
:1001FC00D3F8002442F48042C3F80024D3F8082436
:10020C0042F48042C3F80824D3F8182442F40002C4
:10021C00C3F81824704700BF0030024000000240B1
:10022C000D4AD2F8303843F00603C2F830380B4B85
:10023C00D3F8002442F08052C3F80024D3F80824E9
:10024C0042F08052C3F80824D3F8182442F08042BC
:10025C00C3F81824704700BF003002400000024071
:10026C0008B5FFF7BDFFFFF7DBFF0CE0104AD2F833
:10027C00183443F08001C2F8181443F0804343F063
:10028C008003C2F818340A4BD3F8103813F4005F0B
:10029C00ECD1074AD2F8183443F48041C2F8181450
:1002AC0043F4000343F48043C2F81834EBE700BF77
:1002BC0000000240DFF830D00C480D490D4A0023F5
:1002CC0002E0D458C4500433C4188C42F9D30A4AFF
:1002DC000A4C002301E013600432A242FBD300F06D
:1002EC0011F8FFF7BDFF704700000320000000204D
:1002FC000000002078030008000000201C000020F3
:10030C00FEE7000070B50D4D0D4C641BA4100026CB
:10031C00A64209D10B4D0C4C00F018F8641BA4102C
:10032C000026A64205D170BD55F8043B984701360E
:10033C00EEE755F8043B98470136F2E770030008E6
:10034C00700300087003000874030008F8B500BFC0
:10035C00F8BC08BC9E467047F8B500BFF8BC08BC9A
:04036C009E467047F2
:04037000D1010008AF
:04037400AD010008CF
:04000005080002C12C
:00000001FF
