:020000040800F2
:10000000000003205D020008A9020008A902000800
:10001000A9020008A9020008A902000800000000C7
:10002000000000000000000000000000A90200081D
:10003000A902000800000000A9020008A9020008A7
:10004000A9020008A9020008A9020008A9020008E4
:10005000A9020008A9020008A9020008A9020008D4
:10006000A9020008A9020008A9020008A9020008C4
:10007000A9020008A9020008A9020008A9020008B4
:10008000A9020008A9020008A9020008A9020008A4
:10009000A9020008A9020008A9020008A902000894
:1000A000A9020008A9020008A9020008A902000884
:1000B000A9020008A9020008A9020008A902000874
:1000C000A9020008A9020008A9020008A902000864
:1000D000A9020008A9020008A9020008A902000854
:1000E000A9020008A9020008A9020008A902000844
:1000F000A9020008A9020008A9020008A902000834
:10010000A9020008A9020008A9020008A902000823
:10011000A9020008A9020008A9020008A902000813
:10012000A9020008A9020008A9020008A902000803
:10013000A9020008A9020008A9020008A9020008F3
:10014000A9020008A9020008A9020008A9020008E3
:10015000A9020008A9020008A9020008A9020008D3
:10016000A9020008A9020008A9020008A9020008C3
:10017000A9020008A9020008A90200080000000066
:10018000A9020008A9020008A9020008A9020008A3
:10019000A9020008A9020008A9020008A902000893
:0C01A000A9020008A9020008A90200083A
:1001AC0010B5054C237833B9044B13B10448AFF3A5
:1001BC0000800123237010BD00000020000000000F
:1001CC00F402000808B5034B1BB103490348AFF315
:1001DC00008008BD0000000004000020F4020008AC
:1001EC00194AD2F8303843F00603C2F83038174BAE
:1001FC00D3F8002442F48042C3F800240022C3F850
:10020C000424D3F8082442F48042C3F80824D3F819
:10021C00182442F08002C3F8182406E00B4AD2F8E6
:10022C00183443F40003C2F81834084BD3F81038D0
:10023C0013F4005FF2D1054AD2F8183443F080036E
:10024C00C2F81834F1E700BF003002400000024051
:10025C00DFF830D00C480D490D4A002302E0D45889
:10026C00C4500433C4188C42F9D30A4A0A4C0023F4
:10027C0001E013600432A242FBD300F011F8FFF747
:10028C00AFFF70470000032000000020000000209A
:10029C0014030008000000201C000020FEE70000F2
:1002AC0070B50D4D0D4C641BA4100026A64209D14F
:1002BC000B4D0C4C00F018F8641BA4100026A64241
:1002CC0005D170BD55F8043B98470136EEE755F85B
:1002DC00043B98470136F2E70C0300080C030008B6
:1002EC000C03000810030008F8B500BFF8BC08BCEC
:1002FC009E467047F8B500BFF8BC08BC9E467047D8
:04030C00D101000813
:04031000AD01000833
:040000050800025D90
:00000001FF
