:020000040800F2
:1000000000000320FD03000849040008490400081B
:1000100049040008490400084904000800000000E1
:10002000000000000000000000000000490400087B
:1000300049040008000000004904000849040008C1
:10004000490400084904000849040008490400085C
:10005000490400084904000849040008490400084C
:10006000490400084904000849040008490400083C
:10007000490400084904000849040008490400082C
:10008000490400084904000849040008490400081C
:10009000490400084904000849040008490400080C
:1000A00049040008490400084904000849040008FC
:1000B00049040008490400084904000849040008EC
:1000C00049040008490400084904000849040008DC
:1000D00049040008490400084904000849040008CC
:1000E00049040008490400084904000849040008BC
:1000F00049040008490400084904000849040008AC
:10010000490400084904000849040008490400089B
:10011000490400084904000849040008490400088B
:10012000490400084904000849040008490400087B
:10013000490400084904000849040008490400086B
:10014000490400084904000849040008490400085B
:10015000490400084904000849040008490400084B
:10016000490400084904000849040008490400083B
:100170004904000849040008490400080000000080
:10018000490400084904000849040008490400081B
:10019000490400084904000849040008490400080B
:0C01A00049040008490400084904000854
:1001AC0010B5054C237833B9044B13B10448AFF3A5
:1001BC0000800123237010BD04000020000000000B
:1001CC009404000808B5034B1BB103490348AFF373
:1001DC00008008BD00000000080000209404000806
:1001EC00194A936943F0814343F4803393610022AD
:1001FC0006E015498B6943F080038B610132D2B262
:10020C00124B1B7893421DD3114B19781144114B8F
:10021C0083FB0103A3EBE17303EB4303CB1ADBB2C8
:10022C00012BE6D0022B07D0002BE7D106498B69B6
:10023C0043F001038B61E1E703498B6943F480438D
:10024C008B61DBE7704700BF000402400000002018
:10025C0020000020565555550F4AD2F8303843F03F
:10026C000201C2F8301843F00603C2F830380B4BC9
:10027C00D3F8002442F48042C3F80024D3F80824B5
:10028C0042F48042C3F80824D3F8182442F4000244
:10029C00C3F81824704700BF003002400000024031
:1002AC000D4AD2F8303843F00603C2F830380B4B05
:1002BC00D3F8002442F08052C3F80024D3F8082469
:1002CC0042F08052C3F80824D3F8182442F080423C
:1002DC00C3F81824704700BF0030024000000240F1
:1002EC000B4A136B43F0060313630A4B1A6842F074
:1002FC0001021A605A6822F001025A609A6842F0B0
:10030C0001029A609A6942F480329A61704700BF88
:10031C000038024000040240044B1A6822F4803278
:10032C001A60DA6822F48032DA6070470008024002
:10033C0000B583B0FFF790FFFFF7B2FFFFF7D0FFD8
:10034C00FFF7EAFF20E0234B01221A7022490A78BA
:10035C000132224B83FB020303EB4303D31A0B70D2
:10036C00FFF73EFF0023009302E0009B0133009354
:10037C00009A1B4B9A42F8D90FE0019B0133019371
:10038C00019A174B9A42F8D9164BD3F8103813F43C
:10039C00807FD8D10F4B00221A70124BD3F8103833
:1003AC0013F4005F11D0104B01221A700F490A7818
:1003BC0001320A4B83FB020303EB4303D31A0B708A
:1003CC00FFF70EFF00230193DAE7074B00221A70A8
:1003DC00DAE700BF220000202000002056555555BA
:1003EC003F420F00000002402100002000000020CE
:1003FC00DFF830D00C480D490D4A002302E0D458E8
:10040C00C4500433C4188C42F9D30A4A0A4C002352
:10041C0001E013600432A242FBD300F011F8FFF7A5
:10042C0087FF70470000032000000020040000201C
:10043C00B40400080400002024000020FEE70000A3
:10044C0070B50D4D0D4C641BA4100026A64209D1AD
:10045C000B4D0C4C00F018F8641BA4100026A6429F
:10046C0005D170BD55F8043B98470136EEE755F8B9
:10047C00043B98470136F2E7AC040008AC040008D2
:10048C00AC040008B0040008F8B500BFF8BC08BC08
:10049C009E467047F8B500BFF8BC08BC9E46704736
:0404AC00D101000872
:0404B000AD01000892
:0404B4000100000043
:04000005080003FDEF
:00000001FF
