:020000040800F2
:1000000000000320DD040008290500082905000878
:10001000290500082905000829050008000000003E
:10002000000000000000000000000000290500089A
:10003000290500080000000029050008290500081E
:1000400029050008290500082905000829050008D8
:1000500029050008290500082905000829050008C8
:1000600029050008290500082905000829050008B8
:1000700029050008290500082905000829050008A8
:100080002905000829050008290500082905000898
:100090002905000829050008290500082905000888
:1000A0002905000829050008290500082905000878
:1000B0002905000829050008290500082905000868
:1000C0002905000829050008290500082905000858
:1000D0002905000829050008290500082905000848
:1000E0002905000829050008290500082905000838
:1000F0002905000829050008290500082905000828
:100100002905000829050008290500082905000817
:100110002905000829050008290500082905000807
:1001200029050008290500082905000829050008F7
:1001300029050008290500082905000829050008E7
:1001400029050008290500082905000829050008D7
:1001500029050008290500082905000829050008C7
:1001600029050008290500082905000829050008B7
:1001700029050008290500082905000800000000DD
:100180002905000829050008290500082905000897
:100190002905000829050008290500082905000887
:0C01A000290500082905000829050008B1
:1001AC0010B5054C237833B9044B13B10448AFF3A5
:1001BC0000800123237010BD080000200000000007
:1001CC007405000808B5034B1BB103490348AFF392
:1001DC00008008BD000000000C0000207405000821
:1001EC000F4AD2F8303843F00201C2F8301843F00D
:1001FC000603C2F830380B4BD3F8002442F480428B
:10020C00C3F80024D3F8082442F48042C3F808242D
:10021C00D3F8182442F40002C3F81824704700BF26
:10022C0000300240000002400D4AD2F8303843F052
:10023C000603C2F830380B4BD3F8002442F080523E
:10024C00C3F80024D3F8082442F08052C3F80824E1
:10025C00D3F8182442F08042C3F81824704700BF2A
:10026C0000300240000002400B4A136B43F00603BF
:10027C0013630A4B1A6842F001021A605A6822F0A2
:10028C0001025A609A6842F001029A609A6942F43B
:10029C0080329A61704700BF00380240000402406F
:1002AC00044B1A6822F480321A60DA6822F4803225
:1002BC00DA60704700080240194A936943F08143A1
:1002CC0043F480339361002206E015498B6943F0B7
:1002DC0080038B610132D2B2124B1B7893421DD931
:1002EC00114B19781144114B83FB0103A3EBE17300
:1002FC0003EB4303CB1ADBB2012BE6D0022B07D066
:10030C00002BE7D106498B6943F001038B61E1E7D0
:10031C0003498B6943F480438B61DBE7704700BF73
:10032C0000040240270000200400002056555555BB
:10033C0000B585B01E4B1B78032B0CD01D490A78D9
:10034C0001321D4B83FB02C303EB4303D31A0B7027
:10035C000023039323E0194A936943F0814343F448
:10036C00803393610023019302E0019B01330193DD
:10037C00019B8342F9D3114A936943F4814343F0BF
:10038C00010393610023029302E0029B0133029369
:10039C00029B8342F9D307E0039B01330393039B36
:1003AC008342F9D3FFF788FF05B05DF804FB00BF6B
:1003BC00270000200400002056555555000402402B
:1003CC0008B5FFF70DFFFFF72FFFFFF74DFFFFF706
:1003DC0067FF57E0354B1B78042B03D9344B1B7844
:1003EC00032B25D1314B1B78013BDBB2032B0CD8F3
:1003FC00304B1B78022B08D80133DBB22D4A13701B
:10040C002D4A52F823202D4B1A600023274A1370D3
:10041C002B4A13702B4BD3F8103813F4807F0DD06C
:10042C00294A137801331370284B01221A7025E0E6
:10043C0001331F4A1370FFF73FFFD3E7224B1B78A2
:10044C00042B04D91A4B1B7853BBFFF735FF1E4BFB
:10045C001B78013BDBB2032B0BD8164B1B7843B13B
:10046C00013BDBB2134A1370134A52F82320134B8F
:10047C001A600023144A1370144A13700F4B186837
:10048C00FFF756FF0F4BD3F8103813F4005FA1D0D1
:10049C00064A137801331370094B01221A70B9E71D
:1004AC00013B034A1370FFF707FFD0E7260000203B
:1004BC0027000020240000208C05000800000020EC
:1004CC002900002000000240250000202800002008
:1004DC00DFF830D00C480D490D4A002302E0D45807
:1004EC00C4500433C4188C42F9D30A4A0A4C002372
:1004FC0001E013600432A242FBD300F011F8FFF7C5
:10050C005FFF70470000032000000020080000205F
:10051C00A4050008080000202C000020FEE70000C5
:10052C0070B50D4D0D4C641BA4100026A64209D1CC
:10053C000B4D0C4C00F018F8641BA4100026A642BE
:10054C0005D170BD55F8043B98470136EEE755F8D8
:10055C00043B98470136F2E79C0500089C0500080F
:10056C009C050008A0050008F8B500BFF8BC08BC45
:10057C009E467047F8B500BFF8BC08BC9E46704755
:10058C0040420F0020A1070090D0030048E8010072
:04059C00D101000881
:0405A000AD010008A1
:0805A40020A107000200000085
:04000005080004DD0E
:00000001FF
