:020000040800F2
:1000000000000320B50700080108000801080008E7
:1000100001080008010800080108000800000000AD
:1000200000000000000000000000000001080008BF
:100030000108000800000000010800084D07000842
:10004000010800080108000801080008010800086C
:100050000108000801080008A106000801080008BE
:1000600001080008D106000801080008010800087E
:10007000010800080108000801080008010800083C
:10008000010800080108000801080008010800082C
:10009000010800080108000801080008010800081C
:1000A000010800080108000801080008010800080C
:1000B00001080008010800080108000801080008FC
:1000C00001080008010800080108000801080008EC
:1000D00001080008010800080108000801080008DC
:1000E00001080008010800080108000801080008CC
:1000F00001080008010800080108000801080008BC
:1001000001080008010800080108000801080008AB
:10011000010800080108000801080008010800089B
:10012000010800080108000801080008010800088B
:10013000010800080108000801080008010800087B
:10014000010800080108000801080008010800086B
:10015000010800080108000801080008010800085B
:10016000010800080108000801080008010800084B
:10017000010800080108000801080008000000004C
:10018000010800080108000801080008010800082B
:10019000010800080108000801080008010800081B
:0C01A00001080008010800080108000820
:1001AC0010B5054C237833B9044B13B10448AFF3A5
:1001BC0000800123237010BD080000200000000007
:1001CC004C08000808B5034B1BB103490348AFF3B7
:1001DC00008008BD000000000C0000204C08000846
:1001EC00054A936943F4F803936102F580629369BD
:1001FC0043F08073936170470010024008B5FFF71D
:10020C00EFFF164B1B78052B09D8DFE803F0030929
:10021C000F151B21124A936943F00403936108BD27
:10022C000F4A936943F010039361F8E70C4A936902
:10023C0043F020039361F2E7094A936943F04003CA
:10024C009361ECE7064A936943F008039361E6E790
:10025C00044A936943F480739361E0E72F00002014
:10026C00001002400014024008B50E4B1A780E4BD9
:10027C0033F812200D4B1B68B3EB520F0ED2FFF765
:10028C00BDFF084B1A78084B33F81220074B1B683C
:10029C009A4202D8054B00221A6008BDFFF7A0FF56
:1002AC00EFE700BF24000020000000202800002001
:1002BC0005490A780132054B83FB020303EB430328
:1002CC00D31A0B70704700BF2400002056555555AB
:1002DC0007490A780132074B83FB020303EB430304
:1002EC005800131A0B70044B00221A60704700BFA1
:1002FC002F000020ABAAAA2A2800002008B500F085
:10030C00D7F800F051F800F051F900F0A3F9FFF71D
:10031C0067FF11E0FFF7DCFF0F4B00221A700FE0B4
:10032C00FFF7C6FF00230D4A13700D4A13600BE054
:10033C00FFF756FFFFF798FF074B1B78002BE9D10F
:10034C00064B1B78002BEBD1064B1B78002BEFD107
:10035C00FFF754FFF0E700BF2D0000202C00002019
:10036C00280000202E00002000B500F00700C0F18E
:10037C00070CBCF1040F28BF4FF0040C031D062B17
:10038C000FD9C31E4FF0FF3E0EFA0CF021EA00010C
:10039C0099400EFA03FE22EA0E0241EA02005DF8D1
:1003AC0004FB0023EEE700003F4A136823F0F80338
:1003BC0043F080031360002393603B4B9B6813F066
:1003CC000C0FFAD1384A136823F080731360364B44
:1003DC001B6813F0007FFAD1334A136823F41023FF
:1003EC001360314B1B6813F4003FFAD12E4B1A6883
:1003FC0022F480221A601A6842F480321A602A4B66
:10040C001B6813F4003FFAD0274B1A6822F48022A1
:10041C001A601A6842F400221A6000225A605A6864
:10042C0042F480025A605A6822F03F0242F0040201
:10043C005A605A686FF38E1242F434525A605A68FA
:10044C0022F440325A601A6842F080721A60164BDD
:10045C001B6813F0007FFAD1134B9A6822F0030249
:10046C0042F002029A609A6822F0F0029A609A684E
:10047C0022F4E05242F4A0529A609A6822F460424C
:10048C0042F400429A609A6842F060529A609A680C
:10049C0022F040429A60054A136823F00F0343F0A0
:1004AC0005031360704700BF00380240003C024057
:1004BC003C4A136B43F0340313633B4B1A6842F012
:1004CC0010021A605A6822F004025A609A6842F0CC
:1004DC0010029A60DA6822F01002DA601A6842F0B0
:1004EC0040021A605A6822F008025A609A6842F078
:1004FC0040029A60DA6822F04002DA601A6842F42C
:10050C0080721A605A6822F010025A609A6842F49B
:10051C0080729A60DA6822F48072DA601A6842F4A7
:10052C0080621A605A6822F020025A609A6842F47B
:10053C0080629A60DA6822F48062DA601A6842F4A7
:10054C0080521A605A6822F040025A609A6842F44B
:10055C0080529A60DA6822F48052DA601A6842F4A7
:10056C0080421A605A6822F080025A609A6842F4FB
:10057C0080429A60DA6822F48042DA6003F5806384
:10058C001A6842F480321A605A6822F480725A60F7
:10059C009A6842F480329A60DA6822F48032DA6027
:1005AC00704700BF003802400010024038B5244AA2
:1005BC00536C43F48043536422498B6823F00F033C
:1005CC0043F002038B60204B1A6842F001021A6060
:1005DC009A6842F001029A60DA6842F00102DA602D
:1005EC008A6822F4704242F400528A601A6842F01F
:1005FC0008021A609A6842F008029A60DA6842F0BF
:10060C000802DA60114DE86800221146C0F302209E
:10061C00FFF7AAFE0001C0B20D4C84F80603E8688F
:10062C0000220121C0F30220FFF79EFE0001C0B2A0
:10063C0084F80903402323604FF40073236038BD12
:10064C000038024000380140003C014000ED00E061
:10065C0000E100E04FF0E0231A6922F001021A6178
:10066C001A6942F002021A611A6942F004021A6114
:10067C00596901F07F41064A0A435A619A6902F0AE
:10068C007F429A611A6942F001021A61704700BFF9
:10069C001FBF0200084A536943F001035361074B23
:1006AC001B68C72B06D9064A137801331370034B0A
:1006BC0000221A60704700BF003C0140340000204B
:1006CC002D000020174B5B6913F0080F29D0154A39
:1006DC00536943F008035361134B1B68C72B20D994
:1006EC00124A127842B9124A1360104B01221A7046
:1006FC00104B00221A7070470D4A12689B1A0E4A52
:10070C001360653B40F26B72934205D8094B1B7822
:10071C0013B90A4B01221A700023044A1370024ABF
:10072C0013607047003C0140340000203C00002066
:10073C003800002030000020400000202C00002059
:10074C00124A13680133136011490A6801320A60B6
:10075C00104A1278012A00D070470F4A1278002AEA
:10076C00FAD10E4A12689B1A0D4A1360B3F5FA6F50
:10077C00F2D90C4A1378B3FA83F35B091370002295
:10078C000A60054B01221A70E6E700BF3400002016
:10079C00280000203C000020300000203800002001
:1007AC00400000202E000020DFF830D00C480D490E
:1007BC000D4A002302E0D458C4500433C4188C42B0
:1007CC00F9D30A4A0A4C002301E013600432A24216
:1007DC00FBD300F011F8FFF791FD704700000320E8
:1007EC0000000020080000206C0800080800002011
:1007FC0044000020FEE7000070B50D4D0D4C641B4D
:10080C00A4100026A64209D10B4D0C4C00F018F890
:10081C00641BA4100026A64205D170BD55F8043BFC
:10082C0098470136EEE755F8043B98470136F2E756
:10083C0064080008640800086408000868080008D8
:10084C00F8B500BFF8BC08BC9E467047F8B500BFB1
:08085C00F8BC08BC9E46704781
:04086400D1010008B6
:04086800AD010008D6
:08086C008813E20401030000FF
:04000005080007B533
:00000001FF
