:020000040800F2
:1000000000000320510700089D0700089D07000815
:100010009D0700089D0700089D07000800000000DC
:100020000000000000000000000000009D07000824
:100030009D070008000000009D0700081107000848
:100040009D0700089D0700089D0700089D07000800
:100050009D0700089D0700089D0700089D070008F0
:100060009D0700089D0700089D0700089D070008E0
:100070009D0700089D0700089D0700089D070008D0
:100080009D0700089D070008210700089D0700083C
:100090009D0700089D0700089D0700089D070008B0
:1000A0009D0700089D0700089D0700089D070008A0
:1000B0009D0700089D0700089D0700089D07000890
:1000C0009D0700089D0700089D0700089D07000880
:1000D0009D0700089D0700089D0700089D07000870
:1000E0009D0700089D0700089D0700089D07000860
:1000F0009D0700089D0700089D0700089D07000850
:100100009D0700089D0700089D0700089D0700083F
:100110009D0700089D0700089D0700089D0700082F
:100120009D0700089D0700089D0700089D0700081F
:100130009D0700089D0700089D0700089D0700080F
:100140009D0700089D0700089D0700089D070008FF
:100150009D0700089D0700089D0700089D070008EF
:100160009D0700089D0700089D0700089D070008DF
:100170009D0700089D0700089D070008000000007B
:100180009D0700089D0700089D0700089D070008BF
:100190009D0700089D0700089D0700089D070008AF
:0C01A0009D0700089D0700089D0700084F
:1001AC0010B5054C237833B9044B13B10448AFF3A5
:1001BC0000800123237010BD1000002000000000FF
:1001CC00E807000808B5034B1BB103490348AFF31C
:1001DC00008008BD0000000014000020E8070008A3
:1001EC0040B1064B93FBF0F39BB2054AD3625B081C
:1001FC0093637047024B00229A63704740420F0092
:10020C0000040040064A936843F080439360044B1B
:10021C001B6813F0020FFAD0014BD86C80B27047F8
:10022C000020014010B500F0E9F800F021FA00F0D0
:10023C005DF900F047FA4FF400434FF080425362EF
:10024C00634A1380634B1A68634B1A6012E000F622
:10025C00FF7020E0614B1B6884E0614B1B6881E000
:10026C00604B00229A6380B2D8631A6440F2DC506F
:10027C00FFF7B6FF4FF080435B6A9BB2544A148879
:10028C001C1B24B21380FFF7BDFF4FF47A7303FBE2
:10029C0000F00028DBDB0013002C52D0642303FB9E
:1002AC0004F4514B1A6822441A601B68632B02D861
:1002BC004D4B64221A604C4B1A6841F270739A428F
:1002CC0003D9494B41F270721A60484B1A682244A8
:1002DC001A601B68452B02D8444B46221A60434BCC
:1002EC001A6840F6AC539A4203D9404B40F6AC52D4
:1002FC001A603A4B1A6822441A601B68452B02D8C4
:10030C00364B46221A60354B1A6840F6AC539A426B
:10031C0003D9324B40F6AC521A60314B1A68144474
:10032C001C601B681D2B02D82D4B1E221A602C4BF7
:10033C001A6840F2DC539A4203D9294B40F2DC5242
:10034C001A60244B1B68244A12689A1A284B1B7893
:10035C00DBB2012B3FF47EAF022B3FF47EAF1BB917
:10036C00214B1B68934212D821490A780132214B48
:10037C0083FB024303EB4303D31ADBB20B70154B25
:10038C001A68154B1A600B78DBB21B4A1370184BAA
:10039C001B78DBB2012B05D0022B0ED0002B7FF487
:1003AC0069AF5DE780B20F4B98630022DA631A6481
:1003BC0040F6B830FFF714FF5CE780B2094B986346
:1003CC000022DA63186441F29410FFF709FF51E739
:1003DC0038000020340000203000002004000020F1
:1003EC0000000020000001400C000020080000204C
:1003FC002C000020565555553A000020394A136BF5
:10040C0043F017031363384B1A6822F0030242F0CF
:10041C0002021A60DA6822F0030242F00102DA608A
:10042C001A6A22F00F0242F001021A6203F580638D
:10043C001A6822F0C00242F080021A60DA6822F0D8
:10044C00C00242F04002DA601A6A22F4704242F4AE
:10045C0080521A621A6842F00C021A60DA6822F0B2
:10046C000C02DA6003F540631A6822F03C2222F495
:10047C004C021A601A6842F0282242F408021A60F0
:10048C001A6A22F4700242F440121A621A6A22F0BA
:10049C00706242F040721A625A6A22F0F00242F024
:1004AC0010025A625A6A22F4704242F480525A6222
:1004BC005A6A22F4700242F480125A625A6A22F08A
:1004CC00706242F080725A621A6822F4406242F4FE
:1004DC0000621A601A6A22F4700242F440121A6224
:1004EC00704700BF00380240000002405E490B6CB0
:1004FC0043F001030B644B6C43F001034B644FF06E
:10050C00804300229A624FF0FF32DA629A6922F439
:10051C00407222F0030242F4807242F001029A61AE
:10052C009A6942F4704242F0F0029A619A6822F0A1
:10053C00070242F003029A609A6922F0700242F0BC
:10054C0060029A619A6942F008029A611A6A22F072
:10055C0001021A621A6842F001021A6003F5803334
:10056C00B3229A6240F2E732DA629A6922F4E042EC
:10057C0042F4C0429A619A6942F400629A611A6A22
:10058C0042F010021A62DA6922F0700242F0600244
:10059C00DA61DA6942F00802DA611A6A42F48072AE
:1005AC001A62DA6922F4E04242F4C042DA61DA6992
:1005BC0042F40062DA611A6A42F480521A625A6C8E
:1005CC0042F400425A641A6842F080021A601A68B7
:1005DC0042F001021A600B6B43F002030B630B6CCD
:1005EC0043F002030B64214B1A6822F470621A6008
:1005FC001A6842F420621A601A6A22F470221A6293
:10060C001A6A42F400321A621A6A22F470021A62EE
:10061C001A6A42F400121A62A3F5003359229A6244
:10062C004FF47A72DA629A6922F070029A619A69CE
:10063C0042F060029A619A6942F008029A619A69E2
:10064C0022F4E0429A619A6942F4C0429A619A6932
:10065C0042F400629A611A6A42F011021A621A6834
:10066C0042F081021A6070470038024000040240D8
:10067C00114A536C43F480735364104B9A6822F004
:10068C0001029A600E494A6842F480324A60DA6A82
:10069C0022F47002DA625A6B22F01F0242F0090255
:1006AC005A631A6922F0605242F000521A619A6839
:1006BC0042F001029A60704700380240002001406D
:1006CC00002301404FF0E0231A6922F001021A6165
:1006DC001A6942F002021A611A6942F004021A61A4
:1006EC005A6902F07F4242F48C4242F04F025A6146
:1006FC009A6902F07F429A611A6942F001021A610A
:10070C0070470000024A136801331360704700BF42
:10071C0034000020084B01221A70084B9A6842F0F2
:10072C0080429A60DA6C92B205490A801A6822F00B
:10073C0002021A60704700BF3E00002000200140FA
:10074C003C000020DFF830D00C480D490D4A002346
:10075C0002E0D458C4500433C4188C42F9D30A4A6A
:10076C000A4C002301E013600432A242FBD300F0D8
:10077C0011F8FFF757FD7047000003200000002020
:10078C001000002008080008100000204000002085
:10079C00FEE7000070B50D4D0D4C641BA410002637
:1007AC00A64209D10B4D0C4C00F018F8641BA41098
:1007BC000026A64205D170BD55F8043B984701367A
:1007CC00EEE755F8043B98470136F2E700080008BD
:1007DC00000800080008000804080008F8B500BF6D
:1007EC00F8BC08BC9E467047F8B500BFF8BC08BC06
:0407FC009E4670475E
:04080000D10100081A
:04080400AD0100083A
:10080800F4010000E8030000F4010000E803000020
:040000050800075197
:00000001FF
