:020000040800F2
:1000000000000320010900084D0900084D090008FF
:100010004D0900084D0900084D09000800000000C6
:100020000000000000000000000000004D09000872
:100030004D090008000000004D0900088D08000867
:100040004D0900084D0900084D0900084D09000838
:100050004D0900084D0900084D0900084D09000828
:100060004D090008110800084D0900084D09000855
:100070004D0900084D0900084D0900084D09000808
:100080004D0900084D0900084D0900084D090008F8
:100090004D0900084D0900084D0900084D090008E8
:1000A0004D0900084D0900084D0900084D090008D8
:1000B0004D0900084D0900084D0900084D090008C8
:1000C0004D0900084D0900084D0900084D090008B8
:1000D0004D0900084D0900084D0900084D090008A8
:1000E0004D0900084D0900084D0900084D09000898
:1000F0004D0900084D0900084D0900084D09000888
:100100004D0900084D0900084D0900084D09000877
:100110004D0900084D0900084D0900084D09000867
:100120004D0900084D0900084D0900084D09000857
:100130004D0900084D0900084D0900084D09000847
:100140004D0900084D0900084D0900084D09000837
:100150004D0900084D0900084D0900084D09000827
:100160004D0900084D0900084D0900084D09000817
:100170004D0900084D0900084D0900080000000065
:100180004D0900084D0900084D0900084D090008F7
:100190004D0900084D0900084D0900084D090008E7
:0C01A0004D0900084D0900084D09000839
:1001AC0010B5054C237833B9044B13B10448AFF3A5
:1001BC0000800123237010BD04000020000000000B
:1001CC009809000808B5034B1BB103490348AFF36A
:1001DC00008008BD000000000800002098090008FD
:1001EC00054A002353639363D363136402F580625F
:1001FC0053639363704700BF00040040084B198899
:10020C00084A5163598891639988D163D9881164DC
:10021C00198902F5806251635B899363704700BF53
:10022C004C0000200004004008B5FFF7D9FF002166
:10023C0004E0204B1A88204B5A6301311F4B1B786A
:10024C008B4236DD1E4B1A780A441E4B83FB02038D
:10025C00A3EBE27303EB43035800131A052BECD802
:10026C0001A252F823F000BF3F0200088D020008E3
:10027C0097020008A1020008AB020008B5020008B2
:10028C000C4B5A880C4B9A63D7E70A4B9A880A4B4B
:10029C00DA63D2E7074BDA88074B1A64CDE7054BD4
:1002AC001A89094B5A63C8E7024B5A89064B9A6361
:1002BC00C3E708BD4C0000200004004000000020F3
:1002CC0048000020ABAAAA2A0008004008B500F09C
:1002DC00FDF800F09FF800F093F900F0C5F900F07C
:1002EC00E3F900F055FAFFF77BFF44E06FF0090CDF
:1002FC0051E000222C4820F8132001312B4B1B78A5
:10030C008B4217DD2A4B1A780A442A4B83FB0203D3
:10031C00A3EBE27303EB43035800131A224A32F89F
:10032C00132012EB0C02E4D4B2F57A7FE2DD4FF429
:10033C007A72DFE7FFF762FF1F4B1A681F4B1A60D8
:10034C001F4B1B782BB11F4B01221A701C4B002228
:10035C001A701C4B1B781BBB1B4B1A681B4BA3FB4B
:10036C0002139B094FF47A7101FB1323B3F5FA7F47
:10037C0013D2FFF759FF164B5B6A0F4A13600F4AF3
:10038C0012689B1ADCD00F4A1278012AD8D1002BA4
:10039C00ACDD4FF00A0C0021B0E7FFF721FFEAE7D4
:1003AC00FFF742FFE7E700BF4C00002000000020F1
:1003BC0048000020ABAAAA2A4400002040000020DC
:1003CC002C0000203C00002030000020D34D621097
:1003DC000000014000B500F00700C0F1070CBCF1B3
:1003EC00040F28BF4FF0040C031D062B0FD9C31E9E
:1003FC004FF0FF3E0EFA0CF021EA000199400EFA84
:10040C0003FE22EA0E0241EA02005DF804FB00231F
:10041C00EEE700002C4A136823F0F80343F0800346
:10042C00136000239360284B9B6813F00C0FFAD1D8
:10043C00254A136823F080731360234B1B6813F059
:10044C00007FFAD1204A136823F4102313601E4B4B
:10045C001B6813F4003FFAD11B4B1A6822F480225C
:10046C001A601A6842F480321A60174B1B6813F436
:10047C00003FFAD0144B1A6822F480221A601A68D2
:10048C0042F400221A6000225A605A6842F4800238
:10049C005A605A6822F03F0242F004025A605A68CD
:1004AC006FF38E1242F434525A605A6822F440327E
:1004BC005A601A6842F080721A60034B1B6813F082
:1004CC00007FFAD1704700BF003802404A4A136BD4
:1004DC0043F035031363494B1A6842F400321A6037
:1004EC001A6822F480321A605A6A42F001025A6287
:1004FC005A6A22F00E025A621A6842F400221A60FA
:10050C001A6822F480221A605A6A42F010025A6267
:10051C005A6A22F0E0025A6203F580531A6842F0DC
:10052C0020021A601A6822F010021A601A6A42F449
:10053C0080721A621A6A22F460621A621A6842F4B1
:10054C0000721A601A6822F480721A601A6A42F4F5
:10055C0080321A621A6A22F460221A621A6842F411
:10056C0000621A601A6822F480621A601A6A42F4F5
:10057C0080121A621A6A22F460021A621A6842F431
:10058C0000521A601A6822F480521A601A6A42F0F9
:10059C0080721A621A6A22F060621A621A6842F059
:1005AC0080021A601A6822F040021A601A6A42F439
:1005BC0080521A621A6A22F460421A6203F580634E
:1005CC001A6842F400321A601A6822F480321A60F7
:1005DC005A6A42F001025A625A6A22F00E025A62B8
:1005EC00A3F540631A6822F0C0021A60DA6842F080
:1005FC008002DA60704700BF003802400000024001
:10060C0008B5154A536C43F480435364A2F5803209
:10061C00936823F4704343F4005393600F4B1A68B0
:10062C0042F008021A609A6842F008029A60DA688E
:10063C0042F00802DA600A4BD86800221146C0F377
:10064C000220FFF7C7FE0001C0B2064B83F8090376
:10065C004FF400721A6008BD00380240003C0140A3
:10066C0000ED00E000E100E04FF0E0231A6922F019
:10067C0001021A611A6942F002021A611A6942F007
:10068C0004021A615A6902F07F4206490A435A6110
:10069C009A6902F07F420A439A611A6942F0010298
:1006AC001A6170471FBF0200374A136C43F00603F0
:1006BC001364364B532098624FF47A71D9629A695D
:1006CC0042F060029A619A6942F008029A611A6AD1
:1006DC0042F001021A629A6942F4C0429A619A6924
:1006EC0042F400629A611A6A42F010021A62DA69E4
:1006FC0042F06002DA61DA6942F00802DA611A6AE1
:10070C0042F480721A62DA6942F4C042DA61DA6940
:10071C0042F40062DA611A6A42F480521A621A6870
:10072C0042F080021A605A6942F001025A611A685A
:10073C0042F001021A6003F580639862D9629A69EB
:10074C0042F060029A619A6942F008029A611A6A50
:10075C0042F001021A629A6942F4C0429A619A69A3
:10076C0042F400629A611A6A42F010021A621A6824
:10077C0042F080021A605A6942F001025A611A680A
:10078C0042F001021A607047003802400004004039
:10079C001A4A536C43F001035364194B00219962BC
:1007AC004FF6FF72DA629A6822F007029A609A6832
:1007BC0042F003029A609A6922F4407222F003021A
:1007CC009A619A6942F4807242F001029A619A69C4
:1007DC0042F030029A619A6942F440529A611A6A64
:1007EC0022F022021A625A6C42F400425A64596294
:1007FC001A6842F001021A60704700BF00380240CC
:10080C0000000140174B5B6913F0080F29D0154A03
:10081C00536943F008035361134B1B68C72B20D952
:10082C00124A127842B9124A1360104B01221A7004
:10083C00104B00221A7070470D4A12689B1A0E4A10
:10084C001360653B40F26B72934205D8094B1B78E1
:10085C0013B90A4B01221A700023044A1370024A7E
:10086C0013607047003C014024000020340000203D
:10087C002800002020000020380000202C00002040
:10088C00144A13680133136013490A6801320A6071
:10089C00124A1278012A00D07047114A1278002AA5
:1008AC00FAD1104A12689B1A0F4A1360B3F5FA6F0B
:1008BC00F2D90E490A780E4BA3FB02039B0803EBFB
:1008CC0043035800121A01320A70054B01221A70A8
:1008DC00E2E700BF2400002030000020340000209C
:1008EC0020000020280000203800002000000020FC
:1008FC00ABAAAAAADFF830D00C480D490D4A002348
:10090C0002E0D458C4500433C4188C42F9D30A4AB8
:10091C000A4C002301E013600432A242FBD300F026
:10092C0011F8FFF7D3FC70470000032000000020F3
:10093C0004000020B8090008040000205800002022
:10094C00FEE7000070B50D4D0D4C641BA410002685
:10095C00A64209D10B4D0C4C00F018F8641BA410E6
:10096C000026A64205D170BD55F8043B98470136C8
:10097C00EEE755F8043B98470136F2E7B00900085A
:10098C00B0090008B0090008B4090008F8B500BFA8
:10099C00F8BC08BC9E467047F8B500BFF8BC08BC54
:0409AC009E467047AC
:0409B000D101000869
:0409B400AD01000889
:0409B800010000003A
:0400000508000901E5
:00000001FF
